{
  "address": "0x5FbDB2315678afecb367f032d93F642f64180aa3",
  "abi": [
    {
      "inputs": [
        {
          "internalType": "address",
          "name": "initialOwner",
          "type": "address"
        }
      ],
      "stateMutability": "nonpayable",
      "type": "constructor"
    },
    {
      "inputs": [
        {
          "internalType": "address",
          "name": "owner",
          "type": "address"
        }
      ],
      "name": "OwnableInvalidOwner",
      "type": "error"
    },
    {
      "inputs": [
        {
          "internalType": "address",
          "name": "account",
          "type": "address"
        }
      ],
      "name": "OwnableUnauthorizedAccount",
      "type": "error"
    },
    {
      "anonymous": false,
      "inputs": [
        {
          "indexed": true,
          "internalType": "address",
          "name": "previousOwner",
          "type": "address"
        },
        {
          "indexed": true,
          "internalType": "address",
          "name": "newOwner",
          "type": "address"
        }
      ],
      "name": "OwnershipTransferred",
      "type": "event"
    },
    {
      "anonymous": false,
      "inputs": [
        {
          "indexed": false,
          "internalType": "uint256",
          "name": "taskId",
          "type": "uint256"
        },
        {
          "indexed": false,
          "internalType": "string",
          "name": "title",
          "type": "string"
        },
        {
          "indexed": false,
          "internalType": "string",
          "name": "description",
          "type": "string"
        },
        {
          "indexed": false,
          "internalType": "address",
          "name": "owner",
          "type": "address"
        }
      ],
      "name": "TaskCreated",
      "type": "event"
    },
    {
      "anonymous": false,
      "inputs": [
        {
          "indexed": false,
          "internalType": "uint256",
          "name": "taskId",
          "type": "uint256"
        }
      ],
      "name": "TaskDeleted",
      "type": "event"
    },
    {
      "anonymous": false,
      "inputs": [
        {
          "indexed": false,
          "internalType": "uint256",
          "name": "taskId",
          "type": "uint256"
        },
        {
          "indexed": false,
          "internalType": "string",
          "name": "title",
          "type": "string"
        },
        {
          "indexed": false,
          "internalType": "string",
          "name": "description",
          "type": "string"
        },
        {
          "indexed": false,
          "internalType": "enum taskManager.TaskStatus",
          "name": "status",
          "type": "uint8"
        }
      ],
      "name": "TaskUpdated",
      "type": "event"
    },
    {
      "inputs": [
        {
          "internalType": "string",
          "name": "_title",
          "type": "string"
        },
        {
          "internalType": "string",
          "name": "_description",
          "type": "string"
        }
      ],
      "name": "addTask",
      "outputs": [],
      "stateMutability": "nonpayable",
      "type": "function"
    },
    {
      "inputs": [
        {
          "internalType": "uint256",
          "name": "_taskId",
          "type": "uint256"
        }
      ],
      "name": "deleteTask",
      "outputs": [],
      "stateMutability": "nonpayable",
      "type": "function"
    },
    {
      "inputs": [
        {
          "internalType": "uint256",
          "name": "_taskId",
          "type": "uint256"
        },
        {
          "internalType": "string",
          "name": "_title",
          "type": "string"
        },
        {
          "internalType": "string",
          "name": "_description",
          "type": "string"
        }
      ],
      "name": "editTask",
      "outputs": [],
      "stateMutability": "nonpayable",
      "type": "function"
    },
    {
      "inputs": [],
      "name": "getTask",
      "outputs": [
        {
          "components": [
            {
              "internalType": "uint256",
              "name": "id",
              "type": "uint256"
            },
            {
              "internalType": "string",
              "name": "title",
              "type": "string"
            },
            {
              "internalType": "string",
              "name": "description",
              "type": "string"
            },
            {
              "internalType": "enum taskManager.TaskStatus",
              "name": "status",
              "type": "uint8"
            },
            {
              "internalType": "address",
              "name": "owner",
              "type": "address"
            }
          ],
          "internalType": "struct taskManager.Task[]",
          "name": "",
          "type": "tuple[]"
        }
      ],
      "stateMutability": "view",
      "type": "function"
    },
    {
      "inputs": [],
      "name": "getTaskCounter",
      "outputs": [
        {
          "internalType": "uint256",
          "name": "",
          "type": "uint256"
        }
      ],
      "stateMutability": "view",
      "type": "function"
    },
    {
      "inputs": [
        {
          "internalType": "uint256",
          "name": "_taskId",
          "type": "uint256"
        }
      ],
      "name": "markTaskCompleted",
      "outputs": [],
      "stateMutability": "nonpayable",
      "type": "function"
    },
    {
      "inputs": [],
      "name": "owner",
      "outputs": [
        {
          "internalType": "address",
          "name": "",
          "type": "address"
        }
      ],
      "stateMutability": "view",
      "type": "function"
    },
    {
      "inputs": [],
      "name": "renounceOwnership",
      "outputs": [],
      "stateMutability": "nonpayable",
      "type": "function"
    },
    {
      "inputs": [
        {
          "internalType": "address",
          "name": "newOwner",
          "type": "address"
        }
      ],
      "name": "transferOwnership",
      "outputs": [],
      "stateMutability": "nonpayable",
      "type": "function"
    }
  ],
  "transactionHash": "0xb45a709b54f68d3a250c4f7cff9f7f737d1d0a3d05d55e76b1b5831483f91e74",
  "args": [
    "0xf39Fd6e51aad88F6F4ce6aB8827279cffFb92266"
  ],
  "numDeployments": 1,
  "solcInputHash": "6ea3dbfa9204cedfb05fd8b126410926",
  "bytecode": "0x608060405234801561001057600080fd5b50604051611ba3380380611ba3833981810160405281019061003291906101ea565b80600073ffffffffffffffffffffffffffffffffffffffff168173ffffffffffffffffffffffffffffffffffffffff16036100a55760006040517f1e4fbdf700000000000000000000000000000000000000000000000000000000815260040161009c9190610226565b60405180910390fd5b6100b4816100c360201b60201c565b50600060018190555050610241565b60008060009054906101000a900473ffffffffffffffffffffffffffffffffffffffff169050816000806101000a81548173ffffffffffffffffffffffffffffffffffffffff021916908373ffffffffffffffffffffffffffffffffffffffff1602179055508173ffffffffffffffffffffffffffffffffffffffff168173ffffffffffffffffffffffffffffffffffffffff167f8be0079c531659141344cd1fd0a4f28419497f9722a3daafe3b4186f6b6457e060405160405180910390a35050565b600080fd5b600073ffffffffffffffffffffffffffffffffffffffff82169050919050565b60006101b78261018c565b9050919050565b6101c7816101ac565b81146101d257600080fd5b50565b6000815190506101e4816101be565b92915050565b600060208284031215610200576101ff610187565b5b600061020e848285016101d5565b91505092915050565b610220816101ac565b82525050565b600060208201905061023b6000830184610217565b92915050565b611953806102506000396000f3fe608060405234801561001057600080fd5b50600436106100925760003560e01c80638da5cb5b116100665780638da5cb5b146100f5578063a31662d214610113578063b37b100014610131578063c4c88ee31461014d578063f2fde38b1461016b57610092565b80620b2bda146100975780634103c62e146100b3578063560f3192146100cf578063715018a6146100eb575b600080fd5b6100b160048036038101906100ac9190610d8d565b610187565b005b6100cd60048036038101906100c89190610f00565b6102d7565b005b6100e960048036038101906100e49190610d8d565b61040c565b005b6100f3610565565b005b6100fd610579565b60405161010a9190610fcc565b60405180910390f35b61011b6105a2565b604051610128919061123a565b60405180910390f35b61014b6004803603810190610146919061125c565b61093a565b005b610155610aac565b60405161016291906112e3565b60405180910390f35b6101856004803603810190610180919061132a565b610ab6565b005b803373ffffffffffffffffffffffffffffffffffffffff166002600083815260200190815260200160002060030160019054906101000a900473ffffffffffffffffffffffffffffffffffffffff1673ffffffffffffffffffffffffffffffffffffffff161461022c576040517f08c379a0000000000000000000000000000000000000000000000000000000008152600401610223906113b4565b60405180910390fd5b60016002600084815260200190815260200160002060030160006101000a81548160ff02191690836001811115610266576102656110a1565b5b02179055507f5cd8767f4486de3add411f428feb5bc9b1b3531977feb0c2eab980baf8a6a1e382600260008581526020019081526020016000206001016002600086815260200190815260200160002060020160016040516102cb94939291906114dc565b60405180910390a15050565b823373ffffffffffffffffffffffffffffffffffffffff166002600083815260200190815260200160002060030160019054906101000a900473ffffffffffffffffffffffffffffffffffffffff1673ffffffffffffffffffffffffffffffffffffffff161461037c576040517f08c379a0000000000000000000000000000000000000000000000000000000008152600401610373906113b4565b60405180910390fd5b6000600260008681526020019081526020016000209050838160010190816103a491906116c6565b50828160020190816103b691906116c6565b507f5cd8767f4486de3add411f428feb5bc9b1b3531977feb0c2eab980baf8a6a1e38585858460030160009054906101000a900460ff166040516103fd94939291906117d1565b60405180910390a15050505050565b803373ffffffffffffffffffffffffffffffffffffffff166002600083815260200190815260200160002060030160019054906101000a900473ffffffffffffffffffffffffffffffffffffffff1673ffffffffffffffffffffffffffffffffffffffff16146104b1576040517f08c379a00000000000000000000000000000000000000000000000000000000081526004016104a8906113b4565b60405180910390fd5b600260008381526020019081526020016000206000808201600090556001820160006104dd9190610c8f565b6002820160006104ed9190610c8f565b6003820160006101000a81549060ff02191690556003820160016101000a81549073ffffffffffffffffffffffffffffffffffffffff021916905550507fd078b251d950cc55c44340be1db732337ef4939a76e1367ee271ad2cb19c46af8260405161055991906112e3565b60405180910390a15050565b61056d610b3c565b6105776000610bc3565b565b60008060009054906101000a900473ffffffffffffffffffffffffffffffffffffffff16905090565b6060600080600190505b6001548111610640573373ffffffffffffffffffffffffffffffffffffffff166002600083815260200190815260200160002060030160019054906101000a900473ffffffffffffffffffffffffffffffffffffffff1673ffffffffffffffffffffffffffffffffffffffff160361062d57818061062990611853565b9250505b808061063890611853565b9150506105ac565b5060008167ffffffffffffffff81111561065d5761065c610dd5565b5b60405190808252806020026020018201604052801561069657816020015b610683610ccf565b81526020019060019003908161067b5790505b509050600080600190505b6001548111610930573373ffffffffffffffffffffffffffffffffffffffff166002600083815260200190815260200160002060030160019054906101000a900473ffffffffffffffffffffffffffffffffffffffff1673ffffffffffffffffffffffffffffffffffffffff160361091d57600260008281526020019081526020016000206040518060a00160405290816000820154815260200160018201805461074b90611403565b80601f016020809104026020016040519081016040528092919081815260200182805461077790611403565b80156107c45780601f10610799576101008083540402835291602001916107c4565b820191906000526020600020905b8154815290600101906020018083116107a757829003601f168201915b505050505081526020016002820180546107dd90611403565b80601f016020809104026020016040519081016040528092919081815260200182805461080990611403565b80156108565780601f1061082b57610100808354040283529160200191610856565b820191906000526020600020905b81548152906001019060200180831161083957829003601f168201915b505050505081526020016003820160009054906101000a900460ff166001811115610884576108836110a1565b5b6001811115610896576108956110a1565b5b81526020016003820160019054906101000a900473ffffffffffffffffffffffffffffffffffffffff1673ffffffffffffffffffffffffffffffffffffffff1673ffffffffffffffffffffffffffffffffffffffff16815250508383815181106109035761090261189b565b5b6020026020010181905250818061091990611853565b9250505b808061092890611853565b9150506106a1565b5081935050505090565b6001600081548092919061094d90611853565b91905055506040518060a00160405280600154815260200183815260200182815260200160006001811115610985576109846110a1565b5b81526020013373ffffffffffffffffffffffffffffffffffffffff168152506002600060015481526020019081526020016000206000820151816000015560208201518160010190816109d891906116c6565b5060408201518160020190816109ee91906116c6565b5060608201518160030160006101000a81548160ff02191690836001811115610a1a57610a196110a1565b5b021790555060808201518160030160016101000a81548173ffffffffffffffffffffffffffffffffffffffff021916908373ffffffffffffffffffffffffffffffffffffffff1602179055509050507fbbb94ca73f3965bddcd3928ad3b2e4a73f8f8d2f42813d01d5094d2dd7132af1600154838333604051610aa094939291906118ca565b60405180910390a15050565b6000600154905090565b610abe610b3c565b600073ffffffffffffffffffffffffffffffffffffffff168173ffffffffffffffffffffffffffffffffffffffff1603610b305760006040517f1e4fbdf7000000000000000000000000000000000000000000000000000000008152600401610b279190610fcc565b60405180910390fd5b610b3981610bc3565b50565b610b44610c87565b73ffffffffffffffffffffffffffffffffffffffff16610b62610579565b73ffffffffffffffffffffffffffffffffffffffff1614610bc157610b85610c87565b6040517f118cdaa7000000000000000000000000000000000000000000000000000000008152600401610bb89190610fcc565b60405180910390fd5b565b60008060009054906101000a900473ffffffffffffffffffffffffffffffffffffffff169050816000806101000a81548173ffffffffffffffffffffffffffffffffffffffff021916908373ffffffffffffffffffffffffffffffffffffffff1602179055508173ffffffffffffffffffffffffffffffffffffffff168173ffffffffffffffffffffffffffffffffffffffff167f8be0079c531659141344cd1fd0a4f28419497f9722a3daafe3b4186f6b6457e060405160405180910390a35050565b600033905090565b508054610c9b90611403565b6000825580601f10610cad5750610ccc565b601f016020900490600052602060002090810190610ccb9190610d26565b5b50565b6040518060a0016040528060008152602001606081526020016060815260200160006001811115610d0357610d026110a1565b5b8152602001600073ffffffffffffffffffffffffffffffffffffffff1681525090565b5b80821115610d3f576000816000905550600101610d27565b5090565b6000604051905090565b600080fd5b600080fd5b6000819050919050565b610d6a81610d57565b8114610d7557600080fd5b50565b600081359050610d8781610d61565b92915050565b600060208284031215610da357610da2610d4d565b5b6000610db184828501610d78565b91505092915050565b600080fd5b600080fd5b6000601f19601f8301169050919050565b7f4e487b7100000000000000000000000000000000000000000000000000000000600052604160045260246000fd5b610e0d82610dc4565b810181811067ffffffffffffffff82111715610e2c57610e2b610dd5565b5b80604052505050565b6000610e3f610d43565b9050610e4b8282610e04565b919050565b600067ffffffffffffffff821115610e6b57610e6a610dd5565b5b610e7482610dc4565b9050602081019050919050565b82818337600083830152505050565b6000610ea3610e9e84610e50565b610e35565b905082815260208101848484011115610ebf57610ebe610dbf565b5b610eca848285610e81565b509392505050565b600082601f830112610ee757610ee6610dba565b5b8135610ef7848260208601610e90565b91505092915050565b600080600060608486031215610f1957610f18610d4d565b5b6000610f2786828701610d78565b935050602084013567ffffffffffffffff811115610f4857610f47610d52565b5b610f5486828701610ed2565b925050604084013567ffffffffffffffff811115610f7557610f74610d52565b5b610f8186828701610ed2565b9150509250925092565b600073ffffffffffffffffffffffffffffffffffffffff82169050919050565b6000610fb682610f8b565b9050919050565b610fc681610fab565b82525050565b6000602082019050610fe16000830184610fbd565b92915050565b600081519050919050565b600082825260208201905092915050565b6000819050602082019050919050565b61101c81610d57565b82525050565b600081519050919050565b600082825260208201905092915050565b60005b8381101561105c578082015181840152602081019050611041565b60008484015250505050565b600061107382611022565b61107d818561102d565b935061108d81856020860161103e565b61109681610dc4565b840191505092915050565b7f4e487b7100000000000000000000000000000000000000000000000000000000600052602160045260246000fd5b600281106110e1576110e06110a1565b5b50565b60008190506110f2826110d0565b919050565b6000611102826110e4565b9050919050565b611112816110f7565b82525050565b61112181610fab565b82525050565b600060a08301600083015161113f6000860182611013565b50602083015184820360208601526111578282611068565b915050604083015184820360408601526111718282611068565b91505060608301516111866060860182611109565b5060808301516111996080860182611118565b508091505092915050565b60006111b08383611127565b905092915050565b6000602082019050919050565b60006111d082610fe7565b6111da8185610ff2565b9350836020820285016111ec85611003565b8060005b85811015611228578484038952815161120985826111a4565b9450611214836111b8565b925060208a019950506001810190506111f0565b50829750879550505050505092915050565b6000602082019050818103600083015261125481846111c5565b905092915050565b6000806040838503121561127357611272610d4d565b5b600083013567ffffffffffffffff81111561129157611290610d52565b5b61129d85828601610ed2565b925050602083013567ffffffffffffffff8111156112be576112bd610d52565b5b6112ca85828601610ed2565b9150509250929050565b6112dd81610d57565b82525050565b60006020820190506112f860008301846112d4565b92915050565b61130781610fab565b811461131257600080fd5b50565b600081359050611324816112fe565b92915050565b6000602082840312156113405761133f610d4d565b5b600061134e84828501611315565b91505092915050565b600082825260208201905092915050565b7f4e6f74205461736b204f776e6572000000000000000000000000000000000000600082015250565b600061139e600e83611357565b91506113a982611368565b602082019050919050565b600060208201905081810360008301526113cd81611391565b9050919050565b7f4e487b7100000000000000000000000000000000000000000000000000000000600052602260045260246000fd5b6000600282049050600182168061141b57607f821691505b60208210810361142e5761142d6113d4565b5b50919050565b60008190508160005260206000209050919050565b6000815461145681611403565b6114608186611357565b9450600182166000811461147b5760018114611491576114c4565b60ff1983168652811515602002860193506114c4565b61149a85611434565b60005b838110156114bc5781548189015260018201915060208101905061149d565b808801955050505b50505092915050565b6114d6816110f7565b82525050565b60006080820190506114f160008301876112d4565b81810360208301526115038186611449565b905081810360408301526115178185611449565b905061152660608301846114cd565b95945050505050565b60006020601f8301049050919050565b600082821b905092915050565b60006008830261157c7fffffffffffffffffffffffffffffffffffffffffffffffffffffffffffffffff8261153f565b611586868361153f565b95508019841693508086168417925050509392505050565b6000819050919050565b60006115c36115be6115b984610d57565b61159e565b610d57565b9050919050565b6000819050919050565b6115dd836115a8565b6115f16115e9826115ca565b84845461154c565b825550505050565b600090565b6116066115f9565b6116118184846115d4565b505050565b5b818110156116355761162a6000826115fe565b600181019050611617565b5050565b601f82111561167a5761164b81611434565b6116548461152f565b81016020851015611663578190505b61167761166f8561152f565b830182611616565b50505b505050565b600082821c905092915050565b600061169d6000198460080261167f565b1980831691505092915050565b60006116b6838361168c565b9150826002028217905092915050565b6116cf82611022565b67ffffffffffffffff8111156116e8576116e7610dd5565b5b6116f28254611403565b6116fd828285611639565b600060209050601f831160018114611730576000841561171e578287015190505b61172885826116aa565b865550611790565b601f19841661173e86611434565b60005b8281101561176657848901518255600182019150602085019450602081019050611741565b86831015611783578489015161177f601f89168261168c565b8355505b6001600288020188555050505b505050505050565b60006117a382611022565b6117ad8185611357565b93506117bd81856020860161103e565b6117c681610dc4565b840191505092915050565b60006080820190506117e660008301876112d4565b81810360208301526117f88186611798565b9050818103604083015261180c8185611798565b905061181b60608301846114cd565b95945050505050565b7f4e487b7100000000000000000000000000000000000000000000000000000000600052601160045260246000fd5b600061185e82610d57565b91507fffffffffffffffffffffffffffffffffffffffffffffffffffffffffffffffff82036118905761188f611824565b5b600182019050919050565b7f4e487b7100000000000000000000000000000000000000000000000000000000600052603260045260246000fd5b60006080820190506118df60008301876112d4565b81810360208301526118f18186611798565b905081810360408301526119058185611798565b90506119146060830184610fbd565b9594505050505056fea26469706673582212202ec6fe31e812f78212e8ad21df2deeb82839c1514473e22407b07684ce33919964736f6c634300081c0033",
  "devdoc": {
    "errors": {
      "OwnableInvalidOwner(address)": [
        {
          "details": "The owner is not a valid owner account. (eg. `address(0)`)"
        }
      ],
      "OwnableUnauthorizedAccount(address)": [
        {
          "details": "The caller account is not authorized to perform an operation."
        }
      ]
    },
    "kind": "dev",
    "methods": {
      "owner()": {
        "details": "Returns the address of the current owner."
      },
      "renounceOwnership()": {
        "details": "Leaves the contract without owner. It will not be possible to call `onlyOwner` functions. Can only be called by the current owner. NOTE: Renouncing ownership will leave the contract without an owner, thereby disabling any functionality that is only available to the owner."
      },
      "transferOwnership(address)": {
        "details": "Transfers ownership of the contract to a new account (`newOwner`). Can only be called by the current owner."
      }
    },
    "version": 1
  },
  "userdoc": {
    "kind": "user",
    "methods": {},
    "version": 1
  },
  "storageLayout": {
    "storage": [
      {
        "astId": 8,
        "contract": "contracts/taskManager.sol:taskManager",
        "label": "_owner",
        "offset": 0,
        "slot": "0",
        "type": "t_address"
      },
      {
        "astId": 199,
        "contract": "contracts/taskManager.sol:taskManager",
        "label": "taskCounter",
        "offset": 0,
        "slot": "1",
        "type": "t_uint256"
      },
      {
        "astId": 204,
        "contract": "contracts/taskManager.sol:taskManager",
        "label": "tasks",
        "offset": 0,
        "slot": "2",
        "type": "t_mapping(t_uint256,t_struct(Task)197_storage)"
      }
    ],
    "types": {
      "t_address": {
        "encoding": "inplace",
        "label": "address",
        "numberOfBytes": "20"
      },
      "t_enum(TaskStatus)185": {
        "encoding": "inplace",
        "label": "enum taskManager.TaskStatus",
        "numberOfBytes": "1"
      },
      "t_mapping(t_uint256,t_struct(Task)197_storage)": {
        "encoding": "mapping",
        "key": "t_uint256",
        "label": "mapping(uint256 => struct taskManager.Task)",
        "numberOfBytes": "32",
        "value": "t_struct(Task)197_storage"
      },
      "t_string_storage": {
        "encoding": "bytes",
        "label": "string",
        "numberOfBytes": "32"
      },
      "t_struct(Task)197_storage": {
        "encoding": "inplace",
        "label": "struct taskManager.Task",
        "members": [
          {
            "astId": 187,
            "contract": "contracts/taskManager.sol:taskManager",
            "label": "id",
            "offset": 0,
            "slot": "0",
            "type": "t_uint256"
          },
          {
            "astId": 189,
            "contract": "contracts/taskManager.sol:taskManager",
            "label": "title",
            "offset": 0,
            "slot": "1",
            "type": "t_string_storage"
          },
          {
            "astId": 191,
            "contract": "contracts/taskManager.sol:taskManager",
            "label": "description",
            "offset": 0,
            "slot": "2",
            "type": "t_string_storage"
          },
          {
            "astId": 194,
            "contract": "contracts/taskManager.sol:taskManager",
            "label": "status",
            "offset": 0,
            "slot": "3",
            "type": "t_enum(TaskStatus)185"
          },
          {
            "astId": 196,
            "contract": "contracts/taskManager.sol:taskManager",
            "label": "owner",
            "offset": 1,
            "slot": "3",
            "type": "t_address"
          }
        ],
        "numberOfBytes": "128"
      },
      "t_uint256": {
        "encoding": "inplace",
        "label": "uint256",
        "numberOfBytes": "32"
      }
    }
  }
}